{
  "contractName": "Escrow",
  "abi": [
    {
      "inputs": [
        {
          "internalType": "address",
          "name": "_payer",
          "type": "address"
        },
        {
          "internalType": "address payable",
          "name": "_payee",
          "type": "address"
        },
        {
          "internalType": "uint256",
          "name": "_amount",
          "type": "uint256"
        }
      ],
      "stateMutability": "nonpayable",
      "type": "constructor"
    },
    {
      "inputs": [],
      "name": "amount",
      "outputs": [
        {
          "internalType": "uint256",
          "name": "",
          "type": "uint256"
        }
      ],
      "stateMutability": "view",
      "type": "function",
      "constant": true
    },
    {
      "inputs": [],
      "name": "lawyer",
      "outputs": [
        {
          "internalType": "address",
          "name": "",
          "type": "address"
        }
      ],
      "stateMutability": "view",
      "type": "function",
      "constant": true
    },
    {
      "inputs": [],
      "name": "payee",
      "outputs": [
        {
          "internalType": "address payable",
          "name": "",
          "type": "address"
        }
      ],
      "stateMutability": "view",
      "type": "function",
      "constant": true
    },
    {
      "inputs": [],
      "name": "payer",
      "outputs": [
        {
          "internalType": "address",
          "name": "",
          "type": "address"
        }
      ],
      "stateMutability": "view",
      "type": "function",
      "constant": true
    },
    {
      "inputs": [],
      "name": "deposit",
      "outputs": [],
      "stateMutability": "payable",
      "type": "function",
      "payable": true
    },
    {
      "inputs": [],
      "name": "release",
      "outputs": [],
      "stateMutability": "nonpayable",
      "type": "function"
    },
    {
      "inputs": [],
      "name": "balanceOf",
      "outputs": [
        {
          "internalType": "uint256",
          "name": "",
          "type": "uint256"
        }
      ],
      "stateMutability": "view",
      "type": "function",
      "constant": true
    }
  ],
  "bytecode": "0x608060405234801561000f575f80fd5b5060405161090b38038061090b833981810160405281019061003191906101cb565b825f806101000a81548173ffffffffffffffffffffffffffffffffffffffff021916908373ffffffffffffffffffffffffffffffffffffffff1602179055508160015f6101000a81548173ffffffffffffffffffffffffffffffffffffffff021916908373ffffffffffffffffffffffffffffffffffffffff1602179055503360025f6101000a81548173ffffffffffffffffffffffffffffffffffffffff021916908373ffffffffffffffffffffffffffffffffffffffff1602179055508060038190555050505061021b565b5f80fd5b5f73ffffffffffffffffffffffffffffffffffffffff82169050919050565b5f61012c82610103565b9050919050565b61013c81610122565b8114610146575f80fd5b50565b5f8151905061015781610133565b92915050565b5f61016782610103565b9050919050565b6101778161015d565b8114610181575f80fd5b50565b5f815190506101928161016e565b92915050565b5f819050919050565b6101aa81610198565b81146101b4575f80fd5b50565b5f815190506101c5816101a1565b92915050565b5f805f606084860312156101e2576101e16100ff565b5b5f6101ef86828701610149565b935050602061020086828701610184565b9250506040610211868287016101b7565b9150509250925092565b6106e3806102285f395ff3fe60806040526004361061006f575f3560e01c806386d1a69f1161004d57806386d1a69f146100f1578063aa8c217c14610107578063ae90b21314610131578063d0e30db01461015b5761006f565b8063123119cd146100735780633bfb6e311461009d578063722713f7146100c7575b5f80fd5b34801561007e575f80fd5b50610087610165565b604051610094919061042e565b60405180910390f35b3480156100a8575f80fd5b506100b1610188565b6040516100be919061042e565b60405180910390f35b3480156100d2575f80fd5b506100db6101ad565b6040516100e8919061045f565b60405180910390f35b3480156100fc575f80fd5b506101056101b4565b005b348015610112575f80fd5b5061011b6102f0565b604051610128919061045f565b60405180910390f35b34801561013c575f80fd5b506101456102f6565b6040516101529190610498565b60405180910390f35b61016361031b565b005b5f8054906101000a900473ffffffffffffffffffffffffffffffffffffffff1681565b60025f9054906101000a900473ffffffffffffffffffffffffffffffffffffffff1681565b5f47905090565b60035447146101f8576040517f08c379a00000000000000000000000000000000000000000000000000000000081526004016101ef90610531565b60405180910390fd5b60025f9054906101000a900473ffffffffffffffffffffffffffffffffffffffff1673ffffffffffffffffffffffffffffffffffffffff163373ffffffffffffffffffffffffffffffffffffffff1614610287576040517f08c379a000000000000000000000000000000000000000000000000000000000815260040161027e90610599565b60405180910390fd5b60015f9054906101000a900473ffffffffffffffffffffffffffffffffffffffff1673ffffffffffffffffffffffffffffffffffffffff166108fc60035490811502906040515f60405180830381858888f193505050501580156102ed573d5f803e3d5ffd5b50565b60035481565b60015f9054906101000a900473ffffffffffffffffffffffffffffffffffffffff1681565b5f8054906101000a900473ffffffffffffffffffffffffffffffffffffffff1673ffffffffffffffffffffffffffffffffffffffff163373ffffffffffffffffffffffffffffffffffffffff16146103a8576040517f08c379a000000000000000000000000000000000000000000000000000000000815260040161039f90610601565b60405180910390fd5b6003544711156103ed576040517f08c379a00000000000000000000000000000000000000000000000000000000081526004016103e49061068f565b60405180910390fd5b565b5f73ffffffffffffffffffffffffffffffffffffffff82169050919050565b5f610418826103ef565b9050919050565b6104288161040e565b82525050565b5f6020820190506104415f83018461041f565b92915050565b5f819050919050565b61045981610447565b82525050565b5f6020820190506104725f830184610450565b92915050565b5f610482826103ef565b9050919050565b61049281610478565b82525050565b5f6020820190506104ab5f830184610489565b92915050565b5f82825260208201905092915050565b7f63616e6e6f742072656c656173652066756e6473206265666f72652066756c6c5f8201527f20616d6f756e742069732073656e740000000000000000000000000000000000602082015250565b5f61051b602f836104b1565b9150610526826104c1565b604082019050919050565b5f6020820190508181035f8301526105488161050f565b9050919050565b7f6f6e6c79206c61777965722063616e2072656c656173652066756e64730000005f82015250565b5f610583601d836104b1565b915061058e8261054f565b602082019050919050565b5f6020820190508181035f8301526105b081610577565b9050919050565b7f53656e646572206d7573742062652074686520706179657200000000000000005f82015250565b5f6105eb6018836104b1565b91506105f6826105b7565b602082019050919050565b5f6020820190508181035f830152610618816105df565b9050919050565b7f43616e742073656e64206d6f7265207468616e20657363726f7720616d6f756e5f8201527f7400000000000000000000000000000000000000000000000000000000000000602082015250565b5f6106796021836104b1565b91506106848261061f565b604082019050919050565b5f6020820190508181035f8301526106a68161066d565b905091905056fea26469706673582212200c3f8a68d4a5cd4b83f0b98d3def343b6ee25aad24b081587b4030527f74d53f64736f6c63430008150033",
  "immutableReferences": {},
  "source": "// SPDX-License-Identifier: GPL-3.0\r\npragma solidity ^0.8.0;\r\n\r\ncontract Escrow{\r\n  address public payer;\r\n  address payable public payee;\r\n  address public lawyer;\r\n  uint public amount;\r\n  \r\n  constructor(\r\n    address _payer, \r\n    address payable _payee, \r\n    uint _amount) {\r\n    payer = _payer;\r\n    payee = _payee;\r\n    lawyer = msg.sender; \r\n    amount = _amount;\r\n  }\r\n\r\n  function deposit() payable public {\r\n    require(msg.sender == payer, 'Sender must be the payer');\r\n    require(address(this).balance <= amount, 'Cant send more than escrow amount');\r\n  }\r\n\r\n  function release() public {\r\n    require(address(this).balance == amount, 'cannot release funds before full amount is sent');\r\n    require(msg.sender == lawyer, 'only lawyer can release funds');\r\n    payee.transfer(amount);\r\n  }\r\n  \r\n  function balanceOf() view public returns(uint) {\r\n    return address(this).balance;\r\n  }\r\n}\r\n",
  "sourcePath": "D:\\Portfolio - Projects\\ESCROW_\\contracts\\Escrow.sol",
  "compiler": {
    "name": "solc",
    "version": "0.8.21+commit.d9974bed.Emscripten.clang"
  },
  "schemaVersion": "3.4.16",
  "updatedAt": "2024-06-25T11:25:59.626Z",
  "networkType": "ethereum",
  "devdoc": {
    "kind": "dev",
    "methods": {},
    "version": 1
  },
  "userdoc": {
    "kind": "user",
    "methods": {},
    "version": 1
  }
}